S01700004763634170706C69636174696F6E312E737265635B
S11300000C94A7000C94C4000C94C4000C94C40079
S11300100C94C4000C94C4000C94C4000C94C4004C
S11300200C94C4000C9427010C94C4000C94C400D8
S11300300C94C4000C94C4000C94C4000C94C4002C
S11300400C94C4000C94C4000C94C4000C94C4001C
S11300500C94C40000407A10F35A00A0724E1809A0
S11300600010A5D4E80000E87648170000E40B541B
S1130070020000CA9A3B000000E1F50500008096EA
S11300809800000040420F000000A086010000001C
S1130090102700000000E8030000000064000000D6
S11300A000000A00000000000100000000002C769F
S11300B0D888DC674F0823DFC1DFAE59E1B1B796BA
S11300C0E5E3E453C63AE651997696E8E6C2842617
S11300D0EB898C9B62ED407C6FFCEFBC9C9F40F2F3
S11300E0BAA56FA5F490055A2AF75C936B6CF9676F
S11300F06DC11BFCE0E40D47FEF520E6B500D0ED34
S1130100902E0300943577050080841E080000209B
S11301104E0A000000C80C333333330F986E128339
S11301201141EF8D2114893BE65516CFFEE6DB180D
S1130130D1844B381BF77C1D901DA4BBE4242032D2
S113014084725E228100C9F124ECA1E53D271124CB
S11301501FBECFE5D8E0DEBFCDBF10E0A0E6B0E023
S1130160E2E7FDE002C005900D92AC3CB107D9F77F
S113017020E0ACECB0E001C01D92A73EB207E1F76D
S11301800E943E010C94B7060C940000DF9A000014
S11301900000DF98089514BADE9ADD98AF9B04C07E
S11301A00E94C600AF99FCCF8FEF84BB0895CF9314
S11301B0C82F0E94CB00C5BB8BB38F798BBB0E9429
S11301C0C60015BACF9108958AB3806E8ABB85EABA
S11301D09EE00197F1F700C0000081E00E94D70083
S11301E083EF91E00197F1F700C0000088E30E94DB
S11301F0D70090E19A95F1F700C08EE00E94D700F5
S113020080E18A95F1F700C080E80E94D70090E170
S11302109A95F1F700C00895CF93C82F0E94CB00A0
S1130220C5BBDE98DD9A0E94C60015BACF91089529
S1130230CF93DF93EC018881882331F021960E94CB
S11302400C0189918111FBCFDF91CF9108951F9209
S11302500F920FB60F9211248F939F938091D00029
S11302609091D10001969093D1008093D0009F91FA
S11302708F910F900FBE0F901F9018952F923F9261
S11302804F925F926F927F928F929F92AF92BF92A2
S1130290CF92DF92EF92FF920F931F93CF93DF934E
S11302A0CDB7DEB72A970FB6F894DEBF0FBECDBF29
S11302B01BB888E18AB986E880BD10BC86E089B99C
S11302C018E011BB83E08ABB81E082BB789484E0B0
S11302D089BF1FBC0E94E40081E00E94D70083EF25
S11302E091E00197F1F700C0000080E790E00E94E0
S11302F018019FE7EAE1F6E09150E040F040E1F7B1
S113030000C0000081E00E94D70083EF91E00197D4
S1130310F1F700C000008BE790E00E9418019FEF06
S1130320E4E3FCE09150E040F040E1F700C000005D
S113033012BB0F2EF1E43F2EF02D6894552455F88E
S11303406894662462F844244394CE0101964C01D7
S1130350742CA82EB92C0F2EFDE02F2EF02D0FC1DA
S1130360D89A93E09A95F1F70000D8981DBC1CBC6C
S11303703EBC58BE68BE08B605FEFDCF1DBC1CBC05
S11303804EBC58BE68BE1092D1001092D00008B680
S113039005FEFDCF66B577B580E090E00E94790355
S11303A021E73DE349E652E40E9405036B017C0129
S11303B00A2D1B2D22E042E00E942E04D4010D9050
S11303C00020E9F7119785E0ECE8F0E001900D9248
S11303D08A95E1F7872D0E94D700E3EFF1E031978A
S11303E0F1F700C000008A2D9B2D0E941801FFE345
S11303F02DE083E0F15020408040E1F700C0000090
S1130400872D0E94D70020E030E040E251E4C7018C
S1130410B6010E94050488230CF4B1C082E08BBBB2
S1130420E7EAF1E63197F1F700C000001092E3002B
S11304301092E200E0E6F0E080818823D9F05D9B31
S1130440FECF8CB987EA91E60197F1F700C000006E
S1130450842D0E94D7008091E2009091E3000196E0
S11304609093E3008093E200FC01E05AFF4F808107
S11304708111E5CF2CB8E7EAF1E63197F1F700C036
S11304800000842D0E94D70083EF91E00197F1F7DB
S113049000C0000081E990E00E9418018CB14CB1C9
S11304A03CB12CB15CB1942D8B3209F090E0842DD9
S11304B0433409F080E0982B842D393409F080E02E
S11304C0982B842D253409F080E0892B31F4842D78
S11304D0553509F080E0882339F0E2E0F0E0F0934C
S11304E0CF00E093CE0006C08091CE009091CF0063
S11304F00297E1F5842D0E94D70083EF91E00197E4
S1130500F1F700C0000084EA90E00E941801E7E8D7
S1130510F3E13197F1F700C000001BBA5F9BFECFF7
S11305208CB18334E9F78CB18134E9F78CB182352D
S1130530E9F7842D0E94D70083EF91E00197F1F74A
S113054000C0000083EB90E00E941801E7E8F3E1AB
S11305503197F1F700C0000082E08BBB1092CF000E
S11305601092CE001092CD001092CC00FFE32DE04B
S113057083E0F15020408040E1F700C00000829BFE
S1130580EFCE84E090E022E02BBBE7EAF1E631977E
S1130590F1F700C000001BBAE7EAF1E63197F1F782
S11305A000C00000019781F780E00E94D70083EF2C
S11305B091E00197F1F700C000008EEB90E00E94FB
S11305C018019FE3EDE0F3E09150E040F040E1F7E3
S11305D000C0000080E090E02A960FB6F894DEBFD9
S11305E00FBECDBFDF91CF911F910F91FF90EF9080
S11305F0DF90CF90BF90AF909F908F907F906F903F
S11306005F904F903F902F9008950E9419030C948F
S1130610CB030E94C40358F00E94BD0340F029F4A8
S11306205F3F29F00C94B40351110C94FF030C9414
S1130630BA030E94DC0368F39923B1F3552391F3C1
S1130640951B550BBB27AA2762177307840738F03D
S11306509F5F5F4F220F331F441FAA1FA9F335D09A
S11306600E2E3AF0E0E832D091505040E695001C4E
S1130670CAF72BD0FE2F29D0660F771F881FBB1F08
S1130680261737074807AB07B0E809F0BB0B802DE6
S1130690BF01FF2793585F4F3AF09E3F510578F012
S11306A00C94B4030C94FF035F3FE4F3983ED4F33B
S11306B0869577956795B795F7959F5FC9F7880FE6
S11306C0911D9695879597F90895E1E0660F771F38
S11306D0881FBB1F621773078407BA0720F0621BC9
S11306E0730B840BBA0BEE1F88F7E0950895E8941A
S11306F009C097FB3EF490958095709561957F4F66
S11307008F4F9F4F9923A9F0F92F96E9BB27939513
S1130710F695879577956795B795F111F8CFFAF423
S1130720BB0F11F460FF1BC06F5F7F4F8F4F9F4F54
S113073016C0882311F096E911C0772321F09EE8B2
S1130740872F762F05C0662371F096E8862F70E018
S113075060E02AF09A95660F771F881FDAF7880FF2
S11307609695879597F9089597F99F6780E870E0C3
S113077060E008959FEF80EC089500240A94161613
S1130780170618060906089500240A94121613067B
S1130790140605060895092E0394000C11F4882309
S11307A052F0BB0F40F4BF2B11F460FF04C06F5F25
S11307B07F4F8F4F9F4F089557FD9058440F551FFB
S11307C059F05F3F71F04795880F97FB991F61F0CF
S11307D09F3F79F087950895121613061406551F46
S11307E0F2CF4695F1DF08C0161617061806991FB2
S11307F0F1CF86957105610508940895E894BB27A7
S113080066277727CB0197F908950E940A0408F414
S11308108FEF0895990F0008550FAA0BE0E8FEEF3B
S113082016161706E807F907C0F012161306E407B0
S1130830F50798F0621B730B840B950B39F40A26A9
S113084061F0232B242B252B21F408950A2609F487
S1130850A140A6958FEF811D811D0895EF920F93FE
S11308601F93CF93DF93E80147FD02C034E001C03A
S113087034E1042E000C550B57FF03C051954195EC
S11308805109E32E022F242FAE010E944E04CE0103
S1130890DF91CF911F910F91EF900895A9E0B0E0FF
S11308A0E4E5F4E00C9486066A01122FB02E2BE3E3
S11308B0201720F0FF24F394F00E02C02CE3F22E54
S11308C00F2D27E0AE014F5F5F4F0E94A805BC01CA
S11308D04981842F8970813031F0E1FC06C0E0FE4B
S11308E006C090E205C09DE203C09BE201C090E017
S11308F05E2D507143FF3CC0911102C083E001C0E2
S113090084E0811718F4212F281B01C020E0511125
S11309100BC0F601822F30E2882319F03193815005
S1130920FBCFC20ED11C20E0992329F0D6019C9361
S1130930F60131966F01C6010396E2FE0AC03EE459
S1130940D6013C9341E411964C93119712963C9333
S113095006C03EE6F601308341E641833283FC0162
S1130960322F40E2332309F442C041933150FACF8D
S113097042FF44C0911102C083E001C084E08117AA
S113098018F4212F281B01C020E051110BC0F601DF
S1130990822F30E2882319F031938150FBCFC20EAD
S11309A0D11C20E0992329F0D6019C93F6013196BD
S11309B06F01C6010396E2FE0BC039E4D6013C93F5
S11309C03EE411963C93119736E412963C9307C08B
S11309D039E6F60130833EE6318336E63283FC01A4
S11309E0322F40E2332319F041933150FBCFFC0105
S11309F0E20FF11D10828EEF9FEFA6C021E030E0E0
S1130A00911102C020E030E0161617061CF4FB0119
S1130A10319602C0E1E0F0E02E0F3F1FBB2021F031
S1130A20EB2DF0E0319602C0E0E0F0E02E0F3F1F26
S1130A30E12FF0E02E173F071CF4121B212F01C0F9
S1130A4020E08E2D887159F4F601822F30E288233C
S1130A5019F031938150FBCFC20ED11C20E09923B1
S1130A6029F0D6019C93F60131966F0151110BC008
S1130A70F601822F90E3882319F091938150FBCFE4
S1130A80C20ED11C20E00F2D060F9A81342F307135
S1130A9044FF03C0913309F40150101624F40930C3
S1130AA018F008E001C001E0AB0177FF02C040E0AC
S1130AB050E0FB01E41BF50BA1E0B0E0AC0FBD1F5F
S1130AC0EA0FFB1F8EE2A82E4B01801A91080B2D12
S1130AD010E01195019511094F3FBFEF5B0721F419
S1130AE0D601AC9211966D01641775072CF084162B
S1130AF0950614F4818101C080E341505109319677
S1130B00D60111967D014017510724F0D6018C932C
S1130B106701E2CF6417750739F4963320F49533EF
S1130B2019F4311101C081E3F6018083F701822FAA
S1130B3090E2882319F091938150FBCFF701E20FE3
S1130B40F11D108280E090E02996ECE00C94A2065E
S1130B50283008F027E03327DA01990F311D87FD8B
S1130B60916000966105710539F432602E5F3D9302
S1130B7030E32A95E1F708959F3F30F080387105FE
S1130B80610509F03C5F3C5F3D93913008F080685B
S1130B90911DDF93CF931F930F93FF92EF92192F21
S1130BA0987F9695E92F96959695E90FFF27E2553C
S1130BB0FF4F99273327EE24FF24A701E70105906F
S1130BC00894079428F4360FE71EF81E491F511D98
S1130BD0660F771F881F991F0694A1F70590079445
S1130BE028F4E70EF81E491F561FC11D770F881FF2
S1130BF0991F661F0694A1F70590079428F4F80E30
S1130C00491F561FC71FD11D880F991F661F771FC5
S1130C100694A1F70590079420F4490F561FC71FA7
S1130C20D81F990F661F771F881F0694A9F7849110
S1130C301095177041F0D695C79557954795F79439
S1130C40E7941A95C1F7E4E5F0E0689415901591DE
S1130C5035916591959105907FE27395E118F10ABC
S1130C60430B560BC90BD009C0F7E10CF11E431F0F
S1130C70561FC91FD01D7EF4703311F48A95E6CF38
S1130C80E894015030F0080F0AF40027021708F422
S1130C90202F2395022F7A3328F079E37D932A9528
S1130CA0E9F710C07D932A9589F606949795679580
S1130CB0379517951794E118F10A430B560BC90B96
S1130CC0D00998F023957E9173957A3308F070E3F8
S1130CD07C932013B8F77E9170617D9330F08395F7
S1130CE071E37D9370E32A95E1F71124EF90FF906F
S1130CF00F911F91CF91DF91992787FD90950895CA
S1130D002F923F924F925F926F927F928F929F9217
S1130D10AF92BF92CF92DF92EF92FF920F931F9305
S1130D20CF93DF93CDB7DEB7CA1BDB0B0FB6F894B6
S1130D30DEBF0FBECDBF09942A88398848885F84F6
S1130D406E847D848C849B84AA84B984C884DF8067
S1130D50EE80FD800C811B81AA81B981CE0FD11D4B
S1130D600FB6F894DEBF0FBECDBFED010895F89421
S1050D70FFCFAF
S1130D7241544420393836303130333330383B0033
S1130D8257656C636F6D652E2E2E00496E6974690A
S1130D92616C697A696E672047534D0020636D2048
S1130DA20050726F63657373696E672063616C6C64
S1130DB22E2E2E0073656E64696E672E2E2E2E2ED5
S1130DC22E2E004E6F204341525249455200555334
S10F0DD2657220646574656374656400D8
S9030000FC
